:0400000001EF01F01B
:06000800498203EF01F044
:100018004980D8CF60F0E8CF61F0E0CF62F0FACF46
:1000280063F0FBCF64F0E9CF65F0EACF66F0E1CF8B
:1000380067F0E2CF68F0D9CF69F0DACF6AF0F3CF92
:100048006BF0F4CF6CF0F6CF6DF0F7CF6EF0F8CF21
:100058006FF0F5CF70F09DB69EA671D0C9CF48F06D
:10006800C7BA33D0C7A468D0C69ED89048302F6E80
:10007800080E2F18D8A40BD0000E2E6E2E50010D8E
:10008800010EF324D96E000E1BD02E2A55D0090E6E
:100098002F18D8A409D0000E2E6E2E50010D250E53
:1000A800F324D96E000E0CD00A0E2F18D8A444D011
:1000B800000E2E6E2E50010D270EF324D96E000E61
:1000C800F420DA6EDF50C96EE0D7C7A435D0C69EDB
:1000D800080E2F18D8A412D02E50010D010EF324AB
:1000E800D96E000EF420DA6EDF50C96E2E2A0C0E7F
:1000F800426E2E5023EC04F02E6E1ED0090E2F18DF
:10010800D8A409D02E50010D250EF324D96E000E67
:100118000CD02E2A0FD00A0E2F18D8A40DD02E508E
:10012800010D270EF324D96E000EF420DA6EDF508D
:10013800C96EEFD7010E2E169E96C6883AD09DB08E
:100148009EA024D02D2A2950D8A41ED02DC042F01C
:10015800436A000E456E0A0E446ED0EC03F042501E
:100168004310D8A409D0C2B20FD0C250C30B04099F
:10017800C26EC282298208D0C2B206D0C294C29688
:10018800C298C29AC28229809E9013D09DBC9EAC10
:1001980010D029A206D0C4CF26F0C3CF25F02992CB
:1001A80007D029A005D0C4CF28F0C3CF27F02990C5
:1001B8009E9C70C0F5FF6FC0F8FF6EC0F7FF6DC062
:1001C800F6FF6CC0F4FF6BC0F3FF6AC0DAFF69C0CA
:1001D800D9FF68C0E2FF67C0E1FF66C0EAFF65C0FB
:1001E800E9FF64C0FBFF63C0FAFF62C0E0FF61C0C3
:1001F800E8FF60C0D8FF4990100038EF04F0FACF4C
:1002080034F0FBCF35F0E9CF36F0EACF37F0E1CF65
:1002180038F0E2CF39F0D9CF3AF0DACF3BF0F3CF6C
:100228003CF0F4CF3DF0F6CF3EF0F7CF3FF0F8CFFB
:1002380040F0F5CF41F0F2B8F2A244D0F1AC0ED0C4
:10024800D750316E306AD650326E336A3050321021
:100258000F6E31503310106EF19C32D0D750316E82
:10026800306AD650326E336A305032100D6E3150CB
:1002780033100E6E0F500D5C10500E58D8A00DD0D4
:100288000FC030F010C031F0301E311E304A312A14
:100298000D503024016E0E5010D00FC030F010C039
:1002A80031F0301E311E304A312A0D5030260E50A2
:1002B8003122FF0E3024016E000E3120026EF18CC7
:1002C800F292D4D0F0B6F0A044D0F1AA0ED0D75014
:1002D800316E306AD650326E336A30503210136E37
:1002E80031503310146EF19A32D0D750316E306AD3
:1002F800D650326E336A30503210116E315033108E
:10030800126E1350115C14501258D8A00DD013C09F
:1003180030F014C031F0301E311E304A312A1150ED
:100328003024036E125010D013C030F014C031F0D6
:10033800301E311E304A312A1150302612503122D7
:10034800FF0E3024036E000E3120046EF18AF09007
:100358008DD0F0B8F0A244D0F1A80ED0D750316EAD
:10036800306AD650326E336A30503210176E3150C0
:100378003310186EF19832D0D750316E306AD6509B
:10038800326E336A30503210156E31503310166E9B
:100398001750155C18501658D8A00DD017C030F05B
:1003A80018C031F0301E311E304A312A1550302421
:1003B800056E165010D017C030F018C031F0301E3E
:1003C800311E304A312A1550302616503122FF0E80
:1003D8003024056E000E3120066EF188F09246D06A
:1003E800F0BAF0A443D0F1A60ED0D750316E306ADF
:1003F800D650326E336A305032101B6E3150331083
:100408001C6EF19632D0D750316E306AD650326EAB
:10041800336A30503210196E315033101A6E1B5037
:10042800195C1C501A58D8A00DD01BC030F01CC045
:1004380031F0301E311E304A312A19503024076EEF
:100448001A5010D01BC030F01CC031F0301E311EC5
:10045800304A312A195030261A503122FF0E3024E2
:10046800076E000E3120086EF186F094F2A08ED04F
:100478008150F00B2B6E2B502C182A6E2AAC41D0D1
:1004880081AC0DD0D750316E306AD650326E336A97
:10049800305032101F6E31503310206E74D0D75048
:1004A800316E306AD650326E336A305032101D6E5B
:1004B800315033101E6E1F501D5C20501E58D8A09E
:1004C8000DD01FC030F020C031F0301E311E304A30
:1004D800312A1D503024096E1E5010D01FC030F034
:1004E80020C031F0301E311E304A312A1D503026CE
:1004F8001E503122FF0E3024096E000E31200A6E84
:1005080042D02AAE40D081AE0DD0D750316E306A7D
:10051800D650326E336A30503210236E3150331059
:10052800246E31D0D750316E306AD650326E336A6D
:1005380030503210216E31503310226E2350215C1E
:1005480024502258D8A00DD023C030F024C031F058
:10055800301E311E304A312A215030240B6E225071
:1005680010D023C030F024C031F0301E311E304A84
:10057800312A2150302622503122FF0E30240B6EB2
:10058800000E31200C6E2BC02CF0F29041C0F5FF0C
:1005980040C0F8FF3FC0F7FF3EC0F6FF3DC0F4FF84
:1005A8003CC0F3FF3BC0DAFF3AC0D9FF39C0E2FFD5
:1005B80038C0E1FF37C0EAFF36C0E9FF35C0FBFFAE
:1005C80034C0FAFF49921100D38CD38AD3889B8C0C
:1005D800050E0001726F0F0E0001716FF10EE82E0B
:1005E800FED7712FFCD7722FFAD7050E0001726F54
:1005F8000F0E0001716FF10EE82EFED7712FFCD798
:10060800722FFAD7050E0001726F0F0E0001716F7D
:10061800F10EE82EFED7712FFCD7722FFAD7050EF0
:100628000001726F0F0E0001716FF10EE82EFED7F8
:10063800712FFCD7722FFAD7050E0001726F0F0EBB
:100648000001716FF10EE82EFED7712FFCD7722FC3
:10065800FAD7F29EF29CD08E9280928292849296E1
:10066800928A928C94809482948494869488948AB2
:10067800948C948E93809382938493869388938AA0
:10068800938C938E0F0148910F0148930F01489561
:100698000F0148870F0148890F0149810F014983DC
:1006A8000F0149850F0149970F014989C29EC29CD4
:1006B800C18EC19CC150F80B0509C16EC150C70B52
:1006C8001809C16E9F9C9D8CC280040E0E01E76FB5
:1006D800050E0E01E86F060E0E01E96FD08EC69A60
:1006E800C79CC590C78EC59E100EC86EC650F00B2D
:1006F8000909C66EF90EC86EC650F00B0609C66E1B
:10070800C78CC68AC688C5809D969F969E96F28697
:10071800F18EF08CF08EF182F180F288F086F0880C
:10072800F08AF18CF18AF188F186F292F090F092D9
:10073800F094D58ED59CD59AD598D596D550F80BEA
:100748000509D56E3F0ECD16CF0ECD16CD96CD84AC
:10075800CD829D909F90F28CF28EF28C050E000156
:10076800726F0F0E0001716FF10EE82EFED7712F18
:10077800FCD7722FFAD79D80CD80050E0001726FCD
:100788000F0E0001716FF10EE82EFED7712FFCD706
:10079800722FFAD79D861200000E476E43AE06D020
:1007A800426C431ED8B0432A010E476E45AE04D0B2
:1007B800446C451ED8B0452A44504510D8B418D0CA
:1007C800010E466E04D0D89044364536462A45AECA
:1007D800FAD74450425C45504358D8A004D04450FE
:1007E800425E4550435AD89045324432462EF1D79E
:1007F8004750D8B404D0426C431ED8B0432A42C0F4
:1008080042F043C043F01200000E296EE8EC02F0FB
:10081800A00E00D0E82EFDD780B604D00001736B7F
:10082800732B02D00001736B000173477347734742
:10083800895000017319F70B7319896EE9D7436E54
:10084800080E446E000E456ED89043344534456E0C
:10085800D89043364250455CD8A002D04250455EFD
:10086800442EF2D74550120000EE01F02F0EEE6A2A
:0E087800E806FDE149904992000108EF04F006
:08FFF80080F4DAFFFFF8FFF1CD
:00000001FF
